:100000000C942E000C944B000C944B000C944B0061
:100010000C94D6040C944B000C944B000C944B00A5
:100020000C944B000C944B000C944B000C944B0024
:100030000C944B000C944B000C944B000C944B0014
:100040000C944B000C944B000C944B000C944B0004
:100050000C944B000C944B000C944B0011241FBECD
:10006000CFEFD4E0DEBFCDBF11E0A0E0B1E0EEE124
:10007000FDE002C005900D92AC30B107D9F711E058
:10008000ACE0B1E001C01D92A431B107E1F70E94DC
:10009000C1020C948D060C940000F894E1E6F0E0A7
:1000A0001082808180688083808180837894089525
:1000B00084B18C6084B985B18C7085B9089588232A
:1000C00019F085B1846002C085B18B7F85B9089530
:1000D000882319F085B1886002C085B1877F85B912
:1000E000089560E070E080E090E00E94A50584E65D
:1000F0000E94B5030E941004882369F084E60E94E0
:10010000A80363E171E080E090E00E94FB0484E6D4
:100110000E948F0310C00E944A04882391F084E655
:100120000E94A80363E171E080E090E00E94FB047C
:1001300084E60E949C0366E272E080E090E00E9408
:10014000FB0480E008952F923F924F925F926F924E
:100150007F928F929F92AF92BF92CF92DF92EF9257
:10016000FF920F931F93DF93CF93CDB7DEB72D97F9
:100170000FB6F894DEBF0FBECDBF19821A821B8264
:100180001C821D821E821F8218868E010B5F1F4FEC
:10019000C8010E946B05662477244301AA24BB246E
:1001A000650122243324210119860C871D870E94B2
:1001B0004A04882309F001C10E941004882309F031
:1001C000FCC00E940B068B870E94E5058A872B8561
:1001D0002223C1F58823B1F53985323029F000E0BA
:1001E00010E04985442311F401E010E089819A81EF
:1001F000AB81BC810097A105B10529F0CE01019624
:100200000E946B0508C0CE0101960E946B0560E05C
:1002100070E080E090E0260E371E481E591E51EB1C
:10022000251654E0350650E0450650E0550610F01E
:1002300080E0C4C01B868985823010F421E02B87C2
:100240000A8707C019821A821B821C822224332447
:1002500021013B85332309F14A85442341F066247B
:1002600077244301AA24BB24650119862CC0598533
:10027000513041F041E0642E712C812C912C81E0B1
:10028000898721C00894A11CB11CC11CD11C31E07C
:10029000632E712C812C912C16C02A85222399F073
:1002A0003985323039F066246A94762C430142E075
:1002B000498709C00894A108B108C108D10866247B
:1002C0006A94762C43018601750123E0EE0CFF1C35
:1002D000001F111F2A95D1F7EA18FB080C091D0908
:1002E000C401B3012CE330E040E050E00E9431064D
:1002F000E60EF71E081F191F59ECE516F10401055B
:10030000110534F098ECE92EF12C012D112D18C0B7
:1003100088E3E8168FEFF8068FEF08078FEF1807CE
:100320000CF465C0E114F1040105110521F484E623
:100330000E94B50315C01E141F041006110644F4D4
:10034000B701675E7F4F84E690E00E94710308C0AA
:1003500069E170E06E197F0984E690E00E947F03F6
:100360002B85222339F03A85332311F02A9A06C0CF
:100370002A9A07C04A85442319F02A982B9A02C06A
:100380002A982B988C859D850E946B056333710597
:100390008105910528F060E070E080E090E00AC0FF
:1003A00022E330E040E050E0261B370B480B590BAE
:1003B000CA01B9010E94FB04FACE82E02D960FB665
:1003C000F894DEBF0FBECDBFCF91DF911F910F918B
:1003D000FF90EF90DF90CF90BF90AF909F908F9065
:1003E0007F906F905F904F903F902F90089588E39B
:1003F000E82E8FEFF82E8FEF082F8FEF182FA8CF52
:100400004F925F926F927F928F929F92AF92BF9224
:10041000CF92DF92EF92FF920F931F93DF93CF93D0
:10042000CDB7DEB728970FB6F894DEBF0FBECDBFAD
:1004300019821A821B821C821D821E821F821886CC
:100440008E010F5F1F4FC8010E946B05CC24DD2475
:1004500076017724739465E0462E512C4C0E5D1E78
:10046000602E012F52E3852E912CA12CB12C8D8171
:100470009E81AF81B8850097A105B10521F0C20129
:100480000E946B0507C0C2010E946B0560E070E02E
:1004900080E090E0C60ED71EE81EF91E29E5C216C0
:1004A00022E0D20620E0E20620E0F20668F0809129
:1004B0000001813011F081E001C082E080930001F1
:1004C000CC24DD247601772480910001813039F439
:1004D00084E690E064E670E00E947F0306C084E654
:1004E00090E064E670E00E947103772089F40E9436
:1004F0004A04882329F081E08093000182E02AC029
:100500000E941004882321F082E08093000122C021
:100510000E940B068823E9F40E94E5058823C9F4AC
:10052000862D902F0E946B0563337105810591051F
:1005300028F060E070E080E090E008C0A501940140
:10054000261B370B480B590BCA01B9010E94FB044B
:100550008ECF81E028960FB6F894DEBF0FBECDBFD8
:10056000CF91DF911F910F91FF90EF90DF90CF908F
:10057000BF90AF909F908F907F906F905F904F90C3
:1005800008950F931F93DF93CF9300D000D000D036
:10059000CDB7DEB70E944D0084B18C6084B985B1BF
:1005A0008C7085B90E9484040E9440030E94E40379
:1005B0000E94CE050E94E1050E94C20368EE73E02E
:1005C00080E090E00E94FB040E945D04DE01119631
:1005D000E1E0F1E086E001900D928150E1F70E94A8
:1005E000BA0480E08E010F5F1F4FE82FF0E0EE0F9E
:1005F000FF1FE00FF11F0190F081E02D0995F5CF6D
:100600001F93182F653614F064E603C06C390CF4A0
:100610006CE9123098F5772767FD709570956195B4
:100620007F4F882777FD8095982F24EF31E040E0B9
:1006300050E00E94310628EC30E040E050E00E949B
:10064000500622513D4F83E0293E380718F028EE2E
:1006500033E006C081E0243F380710F424EF31E096
:10066000112319F0113051F405C030938900209303
:10067000880004C030938B0020938A001F91089556
:10068000EF92FF920F931F9300E810E0F8011082A1
:1006900081E8E82EF12CF701108284B1806684B9DC
:1006A00087E28093870080E18093860080E060E0AD
:1006B0000E94000381E060E00E940003F801808155
:1006C00080688083808180628083F701808180617F
:1006D00080838081826080831F910F91FF90EF90D3
:1006E00008951F93182F861B682F80E00E94000337
:1006F000119581E0612F0E9400031F9108950F93CF
:100700001F93082F162F80E0602F0E940003101BFC
:1007100081E0612F0E9400031F910F9108951F93A4
:10072000182F119580E0612F0E94000381E0612F56
:100730000E9400031F9108951F93182F80E0612FDE
:100740000E94000381E0612F0E9400031F91089521
:100750001F93182F682F619580E00E94000381E0AD
:10076000612F0E9400031F9108951F93182F80E0AE
:10077000612F0E940003119581E0612F0E94000308
:100780001F91089580E00E94B50308951F93182FCC
:1007900080E060E00E94000381E0612F0E9400037E
:1007A0008CEB92E00E94FB041F910895682F6195E5
:1007B00080E00E94000381E060E00E9400038CEB77
:1007C00092E00E94FB040895209A2898229A2A9881
:1007D0000895229A2A9A65E070E080E090E00E94F5
:1007E000FB04F8942A9822988091080190910901BD
:1007F000A0910A01B0910B0120E030E040E050E010
:1008000004C02F5F3F4F4F4F5F4F1A9B05C0281703
:1008100039074A075B07A8F37894B901CA0108951C
:100820000E94E903E0E02091080130910901409124
:100830000A0150910B01621773078407950708F4AA
:10084000E1E08E2F0895209A289A65E070E080E01C
:1008500090E00E94FB04F894289820988091080169
:1008600090910901A0910A01B0910B0120E030E0C4
:1008700040E050E004C02F5F3F4F4F4F5F4F189B49
:1008800005C0281739074A075B07A8F37894B90110
:10089000CA0108950E942304E0E0209108013091EC
:1008A000090140910A0150910B01621773078407F7
:1008B000950708F4E1E08E2F0895EF92FF920F93D1
:1008C0001F9388E893E1A0E0B0E080930801909343
:1008D0000901A0930A01B0930B010E94E9037B0177
:1008E0008C010E9423046E0D7F1D801F911F609359
:1008F00008017093090180930A0190930B011F91E5
:100900000F91FF90EF900895F89410920C011092BF
:100910000D0110920E0110920F01E0EBF0E0108239
:10092000808188608083E0E7F0E08081826080835E
:10093000E6EBF0E080818860808381E08093B30003
:100940001092B20078940895F89410920C011092CD
:100950000D0110920E0110920F0114BC84B5886035
:1009600084BDEEE6F0E080818260808388E087BD10
:1009700078940895F89410920C0110920D01109241
:100980000E0110920F01E0EBF0E080818B7F8083FD
:1009900080818360808316BC78940895F894E0EB9E
:1009A000F0E08081887F8083789408951F920F9271
:1009B0000FB60F9211248F939F93AF93BF938091A3
:1009C0000C0190910D01A0910E01B0910F010296C2
:1009D000A11DB11D80930C0190930D01A0930E01F8
:1009E000B0930F01BF91AF919F918F910F900FBE68
:1009F0000F901F901895DF92EF92FF920F931F9325
:100A0000DF93CF9300D000D0CDB7DEB77B018C0150
:100A10008091B000DD24877021F4DD24D3940E94FE
:100A2000BA0419821A821B821C82F89480910C01EC
:100A300090910D01A0910E01B0910F0189839A83CD
:100A4000AB83BC83789429813A814B815C8120936C
:100A5000100130931101409312015093130107C00C
:100A600083B7816083BF889583B78E7F83BF1982E8
:100A70001A821B821C82F89480910C0190910D01C6
:100A8000A0910E01B0910F0189839A83AB83BC833F
:100A9000789489819A81AB81BC81821B930BA40BD2
:100AA000B50B8E159F05A007B107D0F2DD2039F0F8
:100AB000F8948091B000887F8093B00078940F9074
:100AC0000F900F900F90CF91DF911F910F91FF909A
:100AD000EF90DF900895EF92FF920F931F93DF93B3
:100AE000CF9300D000D0CDB7DEB7FC01E080F1801D
:100AF0000281138119821A821B821C82F8948091D0
:100B00000C0190910D01A0910E01B0910F0189830C
:100B10009A83AB83BC83789429813A814B815C8131
:100B200020833183428353832E193F09400B510B9D
:100B3000B901CA010F900F900F900F90CF91DF91E4
:100B40001F910F91FF90EF900895DF93CF9300D006
:100B500000D0CDB7DEB719821A821B821C82F894AE
:100B600020910C0130910D0140910E0150910F0127
:100B700029833A834B835C83789429813A814B8122
:100B80005C81261B370B480B590BB901CA010F902A
:100B90000F900F900F90CF91DF910895F89414BCAF
:100BA000279A84B5886184BD8DE587BD78940895C2
:100BB00084B5887F84BD089516BC84B5816084BDEA
:100BC00008958AB18C7F8AB908951F93CF93DF93DC
:100BD000C0E0D0E010E016BC84B5816084BD61E067
:100BE00070E080E090E00E94FB0484B5887F84BDC3
:100BF000499B219661E070E080E090E00E94FB0458
:100C00001F5F133041F780E0229708F081E0DF9109
:100C1000CF911F9108951F93CF93DF93C0E0D0E051
:100C200010E016BC84B5816084BD61E070E080E0B6
:100C300090E00E94FB0484B5887F84BD489B219688
:100C400061E070E080E090E00E94FB041F5F1330E1
:100C500041F780E0229708F081E0DF91CF911F916A
:100C60000895629FD001739FF001829FE00DF11DF6
:100C7000649FE00DF11D929FF00D839FF00D749F16
:100C8000F00D659FF00D9927729FB00DE11DF91FC2
:100C9000639FB00DE11DF91FBD01CF01112408951F
:100CA00097FB092E05260ED057FD04D014D00AD08C
:100CB000001C38F450954095309521953F4F4F4F8B
:100CC0005F4F0895F6F790958095709561957F4FE9
:100CD0008F4F9F4F0895A1E21A2EAA1BBB1BFD0147
:100CE0000DC0AA1FBB1FEE1FFF1FA217B307E4070B
:100CF000F50720F0A21BB30BE40BF50B661F771F63
:100D0000881F991F1A9469F7609570958095909542
:0E0D10009B01AC01BD01CF010895F894FFCF07
:0C0D1E00010002A3007100022C01000083
:00000001FF
