:100000000C942E000C9440000C9440000C94400082
:100010000C94F4000C9440000C9440000C944000AC
:100020000C9440000C9440000C9440000C94400050
:100030000C9440000C9440000C9440000C94400040
:100040000C9440000C9440000C9440000C94400030
:100050000C9440000C9440000C94400011241FBEEE
:10006000CFEFD4E0DEBFCDBF11E0A0E0B1E001C032
:100070001D92A630B107E1F70E94D7020C948003CD
:100080000C940000209A289A85E090E00E940B01D1
:10009000F89428982098409100015091010120E0A7
:1000A00030E002C02F5F3F4F189903C080E090E01E
:1000B00006C0C9012115310511F081E090E08417D7
:1000C000950780F37894C90108950E94420040E0AA
:1000D00050E020910001309101018217930710F444
:1000E00041E050E0CA010895219A299A85E090E004
:1000F0000E940B01F8942998219840910001509199
:10010000010120E030E002C02F5F3F4F199903C08A
:1001100080E090E006C0C9012115310511F081E0B1
:1001200090E08417950780F37894C90108950E94A0
:10013000740040E050E020910001309101018217ED
:10014000930710F441E050E0CA0108950F931F9304
:10015000209A2898219A299888E893E190930101A0
:10016000809300010E9474008C010E944200080FDD
:10017000191F10930101009300011F910F91089521
:10018000F8941092030110920201E0EBF0E010826B
:10019000808188608083E0E7F0E0808182608083F6
:1001A000E6EBF0E080818860808381E08093B3009B
:1001B0001092B20078940895F8941092030110926E
:1001C0000201E0EBF0E080818B7F8083808183609F
:1001D000808316BC78940895F894E0EBF0E0808179
:1001E000887F8083789408951F920F920FB60F92A4
:1001F00011248F939F9380910201909103010296A5
:1002000090930301809302019F918F910F900FBEF5
:100210000F901F9018950F931F93DF93CF9300D0EB
:10022000CDB7DEB78C018091B00090E08770907000
:10023000892B11F00E94DC001A821982F8948091B7
:100240000201909103019A838983789429813A81EC
:10025000309305012093040107C083B7816083BFF9
:10026000889583B78E7F83BF1A821982F894809114
:100270000201909103019A838983789489819A81FC
:10028000821B930B8017910744F30F900F90CF912F
:10029000DF911F910F910895F894249A14BC84B5AE
:1002A000886184BD84E687BD7894089584B5887F8D
:1002B00084BD089516BC84B5816084BD08958AB15B
:1002C0008A7F8AB908950F931F93CF93DF9300E03D
:1002D00010E0C0E0D0E016BC84B5816084BD81E050
:1002E00090E00E940B0184B5887F84BD4A9902C0CA
:1002F0000F5F1F4F81E090E00E940B012196C530F7
:10030000D10549F720E030E00430110514F021E078
:1003100030E0C901DF91CF911F910F9108950F93A4
:100320001F93CF93DF9300E010E0C0E0D0E016BC55
:1003300084B5816084BD81E090E00E940B0184B5AA
:10034000887F84BD489902C00F5F1F4F81E090E015
:100350000E940B012196C530D10549F720E030E01D
:100360000430110514F021E030E0C901DF91CF9194
:100370001F910F91089523E0693E720718F068EE0F
:1003800073E006C021E0643F720710F464EF71E08F
:10039000009729F47093890060938800089501976D
:1003A00021F470938B0060938A000895EF92FF927E
:1003B0000F931F938C0184EFE82E81E0F82E6E9D41
:1003C000C0016F9D900D7E9D900D112468EC70E032
:1003D0000E94590362517D4F80E090E00E94BB0172
:1003E000109501951F4F0E9DC0010F9D900D1E9DF4
:1003F000900D112468EC70E00E94590362517D4F0A
:1004000081E090E00E94BB011F910F91FF90EF905F
:100410000895EF92FF920F931F9300E810E0F80108
:10042000108291E8E92EF12CF701108284B18066E8
:1004300084B987E28093870080E18093860080E022
:1004400090E060E070E00E94D601F8018081806851
:100450008083808180628083F701808180618083D6
:100460008081826080831F910F91FF90EF900895AB
:10047000F894E1E6F0E010828081806880838081DA
:100480008083789408956F927F928F929F92AF921B
:10049000BF92CF92DF92EF92FF920F931F93CF9371
:1004A000DF93EE24FF24AA24BB24CC24DD240E9465
:1004B0008F013C010E9463014C010E9465008C0188
:1004C0000E949700EC010130110599F4E114F10448
:1004D00081F484E690E00E941F038CEB92E00E947E
:1004E0000B0184E690E00E940D038CEB92E00E94E9
:1004F0000B01C130D10599F4E114F10481F484E6D3
:1005000090E00E941F038CEB92E00E940B0184E6B6
:1005100090E00E941A038CEB92E00E940B01012BE9
:1005200031F6CD2B21F6672871F58928C1F584E0D5
:10053000C816D10478F081E0A816B10431F091E03A
:10054000A92EB12CCC24DD2410C0AA24BB24CC2499
:10055000DD2403C0A114B10421F484E690E00E94DC
:100560001A0381E0A816B10421F484E690E00E9409
:100570000D0384E690E00E940B010894C11CD11C7D
:10058000EE24FF2494CF892829F084E690E00E948D
:100590004B0309C084E690E00E940D0304C084E68A
:1005A00090E00E941A0381E0E82EF12C80CF0E9497
:1005B00038020E94C0000E94EE020E9409020E94BE
:1005C000A6000E944C010E945F0188E893E10E940E
:1005D0000B010E94430280E090E00895229A239A42
:1005E0002A982B98089585B194E0892785B90895B4
:1005F0002A9A08952A98089585B198E0892785B99F
:1006000008952B9A08952B980895BC01882799275F
:10061000861B970B0E94D6010895BC0180E090E0F4
:100620000E94D601089566277727681B790B0E94E0
:10063000D601089560E070E00E94D6010895662713
:100640007727681B790BCB010E94D601089580E0C3
:1006500090E060E070E00E94D60108959095819549
:100660009F4F60E070E00E94D6010E94010384EF7A
:1006700091E00E940B01089566277727681B790B8C
:1006800080E090E00E94D6010E94F80284EF91E0A1
:100690000E940B0108950F931F938C010E94FA0290
:1006A0000E940303C801B8010E94D6011F910F9157
:1006B000089597FB092E07260AD077FD04D00CD0A9
:1006C00006D000201AF4709561957F4F0895F6F7D3
:1006D000909581959F4F0895AA1BBB1B51E107C0C0
:1006E000AA1FBB1FA617B70710F0A61BB70B881FC2
:1006F000991F5A95A9F780959095BC01CD01089551
:04070000F894FFCF9B
:00000001FF
