:100000000C942E000C944B000C944B000C944B0061
:100010000C941D010C944B000C944B000C944B0061
:100020000C944B000C944B000C944B000C944B0024
:100030000C944B000C944B000C944B000C944B0014
:100040000C944B000C944B000C944B000C944B0004
:100050000C944B000C944B000C944B0011241FBECD
:10006000CFEFD4E0DEBFCDBF11E0A0E0B1E0ECE91E
:10007000F7E002C005900D92A430B107D9F711E066
:10008000A4E0B1E001C01D92A830B107E1F70E94E1
:1000900021030C94CC030C940000209A2898229AF7
:1000A0002A980895229A2A9A85E090E00E943401C5
:1000B000F8942A9822988091000190910101A091D2
:1000C0000201B091030120E030E040E050E004C0C4
:1000D0002F5F3F4F4F4F5F4F1A9B05C028173907BF
:1000E0004A075B07A8F37894B901CA0108950E94F2
:1000F0005200E0E0209100013091010140910201A5
:1001000050910301621773078407950708F4E1E033
:100110008E2F0895209A289A85E090E00E9434015D
:10012000F894289820988091000190910101A09165
:100130000201B091030120E030E040E050E004C053
:100140002F5F3F4F4F4F5F4F189B05C02817390750
:100150004A075B07A8F37894B901CA0108950E9481
:100160008A00E0E0209100013091010140910201FC
:1001700050910301621773078407950708F4E1E0C3
:100180008E2F0895EF92FF920F931F9388E893E1CB
:10019000A0E0B0E08093000190930101A0930201E0
:1001A000B09303010E9452007B018C010E948A00DF
:1001B0006E0D7F1D801F911F6093000170930101E0
:1001C00080930201909303011F910F91FF90EF9094
:1001D0000895F8941092050110920401E0EBF0E00C
:1001E0001082808188608083E0E7F0E08081826017
:1001F0008083E6EBF0E080818860808381E08093FB
:10020000B3001092B20078940895F894109205010A
:1002100010920401E0EBF0E080818B7F808380818D
:100220008360808316BC78940895F894E0EBF0E046
:100230008081887F8083789408951F920F920FB6F3
:100240000F9211248F939F93809104019091050147
:10025000029690930501809304019F918F910F90D6
:100260000FBE0F901F901895EF92FF920F931F9360
:10027000DF93CF9300D0CDB7DEB77C018091B00083
:1002800000E010E090E087709070892B21F401E08D
:1002900010E00E9405011A821982F89480910401ED
:1002A000909105019A838983789429813A813093CA
:1002B00007012093060107C083B7816083BF88953B
:1002C00083B78E7F83BF1A821982F89480910401CC
:1002D000909105019A838983789489819A81821B00
:1002E000930B8E159F0544F3012B39F0F894809100
:1002F000B000887F8093B00078940F900F90CF91DA
:10030000DF911F910F91FF90EF900895DF93CF93AE
:1003100000D0CDB7DEB7FC01408151811A8219822D
:10032000F89480910401909105019A8389837894CF
:1003300029813A8131832083241B350BC9010F9019
:100340000F90CF91DF910895DF93CF9300D0CDB779
:10035000DEB71A821982F8942091040130910501C8
:100360003A832983789429813A81281B390BC90162
:100370000F900F90CF91DF910895F89414BC249AB8
:1003800084B5886184BD8DE587BD7894089584B572
:10039000887F84BD089516BC84B5816084BD0895AE
:1003A0008AB18C7F8AB908950F931F93CF93DF93FF
:1003B00000E010E0C0E0D0E016BC84B5816084BDF0
:1003C00081E090E00E94340184B5887F84BD499922
:1003D00002C00F5F1F4F81E090E00E943401219620
:1003E000C530D10549F720E030E00330110514F0A5
:1003F00021E030E0C901DF91CF911F910F91089565
:100400000F931F93CF93DF9300E010E0C0E0D0E0A4
:1004100016BC84B5816084BD81E090E00E94340107
:1004200084B5887F84BD489902C00F5F1F4F81E06B
:1004300090E00E9434012196C530D10549F720E0B3
:1004400030E00330110514F021E030E0C901DF9104
:10045000CF911F910F91089523E0693E720718F024
:1004600068EE73E006C021E0643F720710F464EFA9
:1004700071E0009719F0019751F405C0709389005D
:1004800060938800089570938B0060938A000895AC
:100490009C01653671051CF064E670E006C04FEF04
:1004A0006C39740714F46CE97FEF84EF91E0AC01D0
:1004B000649FC001659F900D749F900D112468EC9E
:1004C00070E00E94A50362517D4FC9010E942C0279
:1004D00008950F931F938B0166277727681B790B6D
:1004E00081E090E00E94480280E090E0B8010E9424
:1004F00048021F910F910895EF92FF920F931F935F
:1005000000E810E0F801108281E8E82EF12CF701F4
:10051000108284B1806684B987E28093870080E18D
:100520008093860080E090E060E070E00E944802E6
:1005300081E090E060E070E00E944802F801808174
:1005400080688083808180628083F7018081806100
:1005500080838081826080831F910F91FF90EF9054
:100560000895F894E1E6F0E010828081806880834D
:100570008081808378940895AF92BF92CF92DF926A
:10058000EF92FF920F931F93CF93DF93C0E0D0E0E1
:100590000E9400025C010E94D4016C010E94AF0025
:1005A000E82EFF240E947700082F10E081E0E81673
:1005B000F10491F4209781F484E690E00E946B03AB
:1005C0008CEB92E00E94340184E690E00E94590393
:1005D0008CEB92E00E9434010130110591F42097D8
:1005E00081F484E690E00E946B038CEB92E00E9421
:1005F000340184E690E00E9466038CEB92E00E9456
:100600003401EF2829F6012B19F6AB2839F4CD284F
:1006100089F484E690E00E949703B8CFCD2829F0B2
:1006200084E690E00E94970309C084E690E00E946F
:10063000590304C084E690E00E946603C1E0D0E064
:10064000A7CF0E94B1020E94E9000E943A030E94D3
:100650007C020E944D000E94BD010E94D00188E8EA
:1006600093E10E9434010E94C2000E94BC0280E01B
:1006700090E00895229A239A2A982B98089585B19C
:1006800094E0892785B908952A9A08952A980895AB
:1006900085B198E0892785B908952B9A08952B98FC
:1006A0000895BC0188279927861B970B0E94690231
:1006B0000895BC0180E090E00E94690208956627D9
:1006C0007727681B790B0E946902089560E070E04B
:1006D0000E946902089566277727681B790BCB0172
:1006E0000E946902089580E090E060E070E00E945E
:1006F00069020895909581959F4F60E070E00E9497
:1007000069020E944D0384EF91E00E943401089534
:1007100066277727681B790B80E090E00E946902CA
:100720000E94440384EF91E00E94340108950F93E6
:100730001F938C010E9446030E944F03C801B80119
:100740000E9469021F910F91089597FB092E0726B9
:100750000AD077FD04D00CD006D000201AF4709592
:1007600061957F4F0895F6F7909581959F4F089575
:10077000AA1BBB1B51E107C0AA1FBB1FA617B707C7
:1007800010F0A61BB70B881F991F5A95A9F78095E3
:0C0790009095BC01CD010895F894FFCFB6
:04079C002C0100002C
:00000001FF
