:100000000C942A001895000018950000189500001F
:10001000189500001895000018950000189500002C
:10002000189500001895000018950000189500001C
:10003000189500001895000018950000189500000C
:1000400018950000189500001895000018950000FC
:10005000189500008FE181BD87E181BD8FE58DBFDF
:10006000C0E4E8E34E2E84E08EBFD4E0F4E05F2EDF
:10007000EEEFF3E0A0E6B0E088278D933197E9F743
:100080006624BC9AC49AC49888EC90E00E945A00F6
:10009000C49A80E293E00E945A000C944300F894C2
:1000A000FFCF3197F1F70895689462F80895E894C6
:1000B00062F80895EF93FF93EE27E82BE92B31F0D8
:1000C000E0EDF7E03197F1F70197D1F7FF91EF916C
:0200D000089591
:00000001FF
